:020000040800F2
:1000000010040020A90100084B0B0008BD0A0008DD
:10001000490B0008B5020008890F00080000000025
:100020000000000000000000000000004F0B00086E
:10003000B7020008000000004D0B0008ED0D00089D
:10004000C3010008C3010008C3010008C301000880
:10005000C3010008C3010008C3010008C301000870
:10006000C3010008C3010008C3010008C301000860
:10007000C3010008C3010008C3010008C301000850
:10008000C3010008C3010008C3010008000000000C
:10009000000000000000000000000000C301000894
:1000A000C3010008C3010008C3010008C301000820
:1000B000C3010008C3010008C3010008C301000810
:1000C000C3010008C3010008C3010008C301000800
:1000D000C3010008C3010008C301000800000000BC
:1000E000C3010008C3010008C301000800000000AC
:1000F000000000000000000000000000C301000834
:1001000000000000C3010008C3010008C30100088B
:1001100000000000000000000000000000000000DF
:10012000C3010008C3010008C3010008C30100089F
:10013000C3010008000000000000000000000000F3
:10014000000000000000000000000000C3010008E3
:10015000C3010008C3010008C3010008C30100086F
:10016000C3010008C30100080000000000000000F7
:10017000000000000000000000000000000000007F
:1001800000000000C30100080000000000000000A3
:10019000C3010008DFF80CD000F07AF800480047EF
:1001A000C90F000810040020064880470648004791
:1001B000FEE7FEE7FEE7FEE7FEE7FEE7FEE7FEE717
:1001C000FEE7FEE7650E0008950100082DE9F05FE7
:1001D0000546002092469B468846064681464024B6
:1001E0001BE0284641464746224600F041F8534668
:1001F0005A46C01A914110D311461846224600F0C3
:1002000028F82D1A67EB01084F46224601200021ED
:1002100000F01FF817EB00094E41201EA4F1010465
:10022000DFDC484631462A464346BDE8F09FD2B25D
:1002300001E000F8012B491EFBD270470022F6E7CF
:1002400010B513460A4604461946FFF7F0FF20464C
:1002500010BD202A04DB203A00FA02F1002070478A
:100260009140C2F1200320FA03F3194390407047F4
:10027000202A04DB203A21FA02F00021704721FAFB
:1002800002F3D040C2F12002914008431946704762
:10029000064C074D06E0E06840F0010394E80700D3
:1002A00098471034AC42F6D3FFF778FF04100008EB
:1002B00024100008FEE7704770B5044600F0DEF831
:1002C0000546601C02D004480078044400F0D6F8CB
:1002D000401BA042FAD370BD000000202DE9F84F6A
:1002E00000224FF0010803254FF00F0E0B6808FAAB
:1002F00002F42340A34271D14E68012E05D0022E94
:1003000003D0112E01D0122E15D18668570005FAA0
:1003100007FC26EA0C06D1F80CC00CFA07FC4CEAE4
:10032000060CC0F808C04668A6430C79C4F3001454
:10033000944034434460C668570005FA07FC8C6853
:1003400026EA0C06BC403443C4604C68022C01D041
:10035000122C13D1D40800EB8404A346D4F82090C7
:1003600054074FEAD46A0EFA0AF629EA06090E691A
:1003700006FA0AF646EA0906CBF8206004680E7908
:1003800024EA0C0406F00306BE40264306604C68CF
:10039000E40056D52E4C266846F480462660246834
:1003A00022F0030604F4804400942A4C3444A4460A
:1003B000D4F808489607370F0EFA07F6B443264ECE
:1003C000B04201D1002615E0244EB04201D10126F1
:1003D00010E0234EB04202D102260BE031E0214E64
:1003E000B04201D1032605E01F4EB04201D10426E0
:1003F00000E00726BE402643CCF808681B4E346850
:100400004F689C43FF0300D51C433460174E361DD4
:1004100034684F689C43BF0300D51C433460134EBF
:10042000083634684F689C43FF0200D51C43346093
:100430000E4E0C3634684F689C43BF0200D51C43F7
:100440003460521C102AFFF451AFBDE8F88F000051
:1004500044380240003001400000024000040240E5
:1004600000080240000C024000100240003C014025
:100470000AB1816170470904FBE700000148806808
:100480007047000000000020024881680278114493
:1004900081607047000000200B4810B5016841F4EE
:1004A00000710160016841F480610160016841F4FC
:1004B00080710160032000F061F8002000F006F870
:1004C00000F024F8002010BD003C024070B50D4D36
:1004D00004464FF47A712878B1FBF0F00A490968B4
:1004E000B1FBF0F000F0D6FA48B9102C07D2002288
:1004F0002146501E00F022F800206C6070BD0120E3
:1005000070BD0000000000200C0000200A4808B563
:10051000016841F480410160006800F4804000906F
:100520000548001F016841F080510160006800F03B
:100530008050009008BD000044380240F0B40E4BDB
:100540001B680C46C3F30223C3F10705042D00D931
:100550000425191D072901D2002300E0DB1E012616
:1005600006FA05F1491E214099409E40761E16402C
:100570003143F0BC00F009BD0CED00E0064900F08D
:10058000070208684FF6FF03184040EA0220034ABA
:1005900010430860704700000CED00E00000FA0511
:1005A0002DE9F0470E46050065D0DFF81481D8F834
:1005B0000000F7B200F00F00B04207D288F80070D8
:1005C000D8F8000000F00F00B04254D128683D4C2C
:1005D000810712D5400703D5206840F4E050206021
:1005E0002878000703D5206840F460402060206828
:1005F000A96820F0F000084320602878C0072DD0BB
:10060000304968680839012812D0022813D003281D
:1006100011D00968890700292DDA216821F003012A
:1006200001432160FFF72AFF814641F2883A0EE03C
:1006300009688903EFE709688901ECE7FFF71EFF06
:10064000A0EB0901514502D90320BDE8F0872068DD
:10065000696800F00C00B0EB810FEFD1D8F8001002
:10066000404601F00F01B14207D90770006800F061
:100670000F00B04201D00120E7E72878400705D5F8
:100680002068E96820F4E0500843206028780007DB
:1006900006D52068296920F4604040EAC100206046
:1006A00000F018F82168084AC1F30311515CC840F2
:1006B0000649086006480068FFF708FF0020C4E705
:1006C000003C024008380240F20F00080C000020F5
:1006D00004000020154810B5006810F00C02144802
:1006E00013D01449042A0FD0082A0ED10F4C241F0E
:1006F0002268236802F03F025B0207D52068C0F33E
:100700008810A0FB010106E0084610BD2168C1F376
:100710008811A1FB00010023FFF758FD2168C1F3F8
:100720000141491C4900B0FBF1F010BD08380240FE
:100730000024F40040787D012DE9F84F04006ED0CC
:100740002078DFF83C93C007A9F104054AD009F1ED
:1007500004000168C1F38101012908D00068C0F3D9
:10076000810002280AD1D9F80000400206D5286885
:10077000800337D560680028E1D033E06068B0F5C9
:10078000803F10D0B0F5A02F286810D020F4803022
:100790002860286820F4802028606068A8B1FFF7EE
:1007A0006DFE06460DE0286840F48030F4E740F422
:1007B00080202860F7E700BFFFF760FE801B6428F9
:1007C00073D828688003F7D50CE0FFF757FE06467C
:1007D00005E000BFFFF752FE801B6428F0D82868B0
:1007E0008003F7D42078DFF89C8280074FF0000A5E
:1007F0003ED5A348001D016811F00C0F08D0006819
:10080000C0F3810002280BD1D9F80000400207D4C0
:100810002868800716D5E068012800D112E02BE196
:10082000E068B8B10120C8F80000FFF727FE0646CF
:1008300005E000BFFFF722FE801B0228C0D8286811
:100840008007F7D52868216920F0F80040EAC10048
:1008500028600DE0C8F800A0FFF710FE064604E08F
:10086000FFF70CFE801B02281FD828688007F7D4EA
:100870002078000722D5824E83486169703671B1B5
:1008800001210160FFF7FAFD074604E0FFF7F6FDDE
:10089000C01B022809D830688007F7D50EE0C0F8E1
:1008A00000A0FFF7EBFD074605E082E0FFF7E6FD5D
:1008B000C01B02287DD830688007F7D42078400715
:1008C00068D5DFF8BCB100270BF13C0BDBF800006A
:1008D000C0000BD4DBF8001041F08051CBF80010C1
:1008E000DBF80000012700F080500090674E306870
:1008F000C00510D4306840F480703060FFF7BEFD52
:10090000009005E0FFF7BAFD0099401A022850D880
:100910003068C005F6D55A4EA0686C3601280FD055
:100920000528306810D020F001003060306820F0D9
:1009300004003060A068B8B1FFF7A0FD00900FE0A0
:10094000306840F00100F4E740F004003060F7E761
:10095000FFF794FD0099411A41F28830814266D830
:1009600030688007F4D50EE0FFF788FD009007E0BF
:10097000FFF784FD0099411A41F28830814256D830
:1009800030688007F4D42FB1DBF8001021F08051DB
:10099000CBF80010A069C8B33949091D0968C1F333
:1009A000810102294AD00228504607D0C8F86000C9
:1009B00000E03CE0FFF762FD04463BE04746C8F834
:1009C0006000FFF75BFD064605E000BFFFF756FD40
:1009D000801B02282BD828688001F7D4D4E90701AE
:1009E0000843A16A2A4A490802EB0141626A41EAC6
:1009F0008211084394F82C1040EA0161C9F80010F4
:100A000001203866FFF73AFD044606E036E000BFF5
:100A1000FFF734FD001B022809D828688001F7D5AC
:100A20002CE000BFFFF72AFD001B022802D903209B
:100A3000BDE8F88F28688001F4D41FE00128F7D0C2
:100A4000D9F80000E26900F48001914214D1226AD1
:100A500000F03F0191420FD147F6C071626A014038
:100A6000914209D1A26A00F44031914204D1E16A75
:100A700000F07060884201D00120D9E70020D7E75C
:100A80000438024000004742800E47420070004098
:100A90000000FFFF10B5401EB0F1807F01D30120A0
:100AA00010BD4FF0E02460610F21601700F06DFA77
:100AB0000020A06107202061002010BDFEE700009B
:100AC0002DE9F04186B014216846FFF7B7FB1B48BB
:100AD0000024016841F010010160016801F010017B
:100AE0000591016841F0080101600068144F00F0B1
:100AF000080005902246FF213846FFF7B9FCDFF8D1
:100B000044804FF6FF76002231464046FFF7B0FCA6
:100B1000FF2000900125CDE9015469463846039431
:100B2000FFF7DCFB0096CDE901546946404603948B
:100B3000FFF7D4FB06B0BDE8F0810000303802407A
:100B400000100240000C0240FEE7704770477047FB
:100B500010B53E4C012211462046FFF789FC0122C8
:100B600002212046FFF784FC012204212046FFF7E2
:100B70007FFC012208212046FFF77AFC0122102188
:100B80002046FFF775FC012220212046FFF770FC6C
:100B9000012240212046FFF76BFC012280212046E4
:100BA000FFF766FC012211022046FFF761FC0122DB
:100BB00051022046FFF75CFC012291022046FFF71C
:100BC00057FC0122D1022046FFF752FC01221103FB
:100BD0002046FFF74DFC012251032046FFF748FC59
:100BE000012291032046FFF743FC0122D103204656
:100BF000FFF73EFC164C012211462046FFF738FC59
:100C0000012202212046FFF733FC01220421204665
:100C1000FFF72EFC012208212046FFF729FC0122C4
:100C200010212046FFF724FC012220212046FFF757
:100C30001FFC012240212046FFF71AFC204601221A
:100C4000BDE810408021FFF713BC0000000C0240FB
:100C50000010024010B500F013F96420FFF72CFBE0
:100C6000604C012211462046FFF702FC6420FFF78A
:100C700023FB012202212046FFF7FAFB6420FFF745
:100C80001BFB012204212046FFF7F2FB6420FFF743
:100C900013FB012208212046FFF7EAFB6420FFF73F
:100CA0000BFB012210212046FFF7E2FB6420FFF737
:100CB00003FB012220212046FFF7DAFB6420FFF727
:100CC000FBFA012240212046FFF7D2FB6420FFF708
:100CD000F3FA012280212046FFF7CAFB6420FFF7C8
:100CE000EBFA012211022046FFF7C2FB6420FFF756
:100CF000E3FA012251022046FFF7BAFB6420FFF716
:100D0000DBFA012291022046FFF7B2FB6420FFF7D5
:100D1000D3FA0122D1022046FFF7AAFB6420FFF795
:100D2000CBFA012211032046FFF7A2FB6420FFF754
:100D3000C3FA012251032046FFF79AFB6420FFF714
:100D4000BBFA012291032046FFF792FB6420FFF7D4
:100D5000B3FA0122D1032046FFF78AFB6420FFF794
:100D6000ABFA214C012211462046FFF781FB64209B
:100D7000FFF7A2FA012202212046FFF779FB642047
:100D8000FFF79AFA012204212046FFF771FB642045
:100D9000FFF792FA012208212046FFF769FB642041
:100DA000FFF78AFA012210212046FFF761FB642039
:100DB000FFF782FA012220212046FFF759FB642029
:100DC000FFF77AFA012240212046FFF751FB642009
:100DD000FFF772FA20460122BDE810408021FFF79C
:100DE00047BB0000000C024000100240FFF74CBB64
:100DF00010B592B030216846FFF720FA14210CA8F4
:100E0000FFF71CFA15480024016841F08051016089
:100E1000006800F0805011901148016821F44041B1
:100E200041F4004101600068069400F440401190D4
:100E30000220009001200390102004906846FFF7E4
:100E40007BFC0F20CDE90C048020CDE90E040021AD
:100E50000CA81094FFF7A4FB12B010BD403802405C
:100E6000007000400548016841F4700101600349C9
:100E70004FF00060803908607047000088ED00E0A6
:100E800010B53F4C002201212046FFF7F1FA002265
:100E900002212046FFF7ECFA002204212046FFF74A
:100EA000E7FA002208212046FFF7E2FA002210218B
:100EB0002046FFF7DDFA002220212046FFF7D8FA6E
:100EC000002240212046FFF7D3FA0022802120464D
:100ED000FFF7CEFA0022A1152046FFF7C9FA00223B
:100EE00061152046FFF7C4FA002221152046FFF7BE
:100EF000BFFA0022E1142046FFF7BAFA0022A1143B
:100F00002046FFF7B5FA00224FF400512046FFF7C4
:100F1000AFFA00224FF480412046FFF7A9FA0022E1
:100F20004FF400412046FFF7A3FA164C002201219E
:100F30002046FFF79DFA002202212046FFF798FA8B
:100F4000002204212046FFF793FA002208212046C0
:100F5000FFF78EFA002210212046FFF789FA0022BF
:100F600020212046FFF784FA002240212046FFF787
:100F70007FFA20460022BDE810408021FFF778BAB2
:100F8000000C024000100240FEE70907090E00288D
:100F900004DB00F1E02080F80014704700F00F003F
:100FA00000F1E02080F8141D704702E008C8121F0D
:100FB00008C1002AFAD170477047002001E001C142
:100FC000121F002AFBD17047FFF766FAFFF710FFE8
:100FD000FFF776FD4FF47A74FFF7BAFD2046FFF76E
:100FE0006BF9FFF74DFF2046FFF766F9FFF732FE7A
:100FF000F2E7000000000000000001020304060701
:101000000809000024100008000000201000000063
:10101000AA0F00083410000810000020000400008F
:10102000BA0F0008010000001000000000000000DE
:041030000024F400A4
:040000050800019559
:00000001FF
